:020000040800F2
:1000000000070020B5010008BD010008BF0100087D
:10001000C1010008C3010008C5010008000000007C
:10002000000000000000000000000000C701000800
:10003000C901000800000000CB010008CD01000844
:10004000CF010008CF010008CF010008CF01000850
:10005000CF010008CF010008CF010008CF01000840
:10006000CF010008CF010008CF010008CF01000830
:10007000CF010008CF010008CF010008CF01000820
:10008000CF010008CF010008CF010008CF01000810
:10009000CF010008CF010008CF010008CF01000800
:1000A000CF010008CF010008CF010008CF010008F0
:1000B000CF010008CF010008CF010008CF010008E0
:1000C000CF010008CF010008CF010008CF010008D0
:1000D000CF010008CF010008CF010008CF010008C0
:1000E000CF010008CF010008CF01000800F002F89E
:1000F00000F050F814A696E8000CB244B344DA4578
:1001000001D100F047F8BAE80F000FA696E83000DA
:10011000A5EB040504EB0607AAEB0704A7F101070A
:100120004FEA15154FEA3414A4F10104AC4201D38F
:1001300000F030F813F0010F18BFFB1A43F0010371
:1001400000F001F8DBE71847DC190000FC1900009B
:10015000103A24BF78C878C1FAD8520724BF30C8F3
:1001600030C144BF04680C60704700007047000055
:100170000023002400250026103A28BF78C1FBD8B0
:10018000520728BF30C148BF0B6070471FB51FBD65
:1001900010B510BD00F031F81146FFF7F7FF00F081
:1001A0006BFC00F04FF803B4FFF7F2FF03BC00F064
:1001B00057F800000948804709480047FEE7FEE776
:1001C000FEE7FEE7FEE7FEE7FEE7FEE7FEE7FEE707
:1001D00004480549054A064B7047000075040008AD
:1001E000ED000008000100200007002000030020AF
:1001F00000030020704770477047754600F02CF8E8
:10020000AE4605006946534620F00700854618B003
:1002100020B5FFF7DDFFBDE820404FF000064FF0AE
:1002200000074FF000084FF0000BAC46ACE8C009E7
:10023000ACE8C009ACE8C009ACE8C00921F007018E
:100240008D46704710B50446AFF300802046BDE8E8
:100250001040FFF7A8BF000000487047A000002032
:1002600001491820ABBEFEE72600020070470000DF
:100270004EF21401CEF2000141F64010C0F201002E
:1002800008604EF21801CEF2000100200860FFE77E
:100290004EF21000CEF200000068C003002801D426
:1002A000FFE7F5E77047000080B582B00190FFE7F7
:1002B000019838B1FFE7FFF7DBFFFFE7019801384E
:1002C0000190F5E702B080BD84B0ADF80E00ADF846
:1002D0000C1002200190BDF80E00012809D1FFE7A3
:1002E000019940F60000C4F2010000EB8100029089
:1002F0001DE0BDF80E00022809D1FFE7019940F684
:100300000040C4F2010000EB810002900EE0BDF855
:100310000E00032809D1FFE7019941F20000C4F261
:10032000010000EB81000290FFE7FFE7FFE7029882
:100330000068BDF80C1001228A401040C8400090AF
:10034000009804B07047000080B500F001F880BD4F
:1003500084B000200390029041F20001C4F2020137
:10036000086840F480300860FFE741F20000C4F202
:100370000200006800F400300290039801300390FE
:10038000FFE702990020019039B9FFE70398B0F523
:10039000A06018BF01200190FFE70198C007002866
:1003A000E3D1FFE741F20000C4F2020000688003DD
:1003B000002803D5FFE70120029002E00020029010
:1003C000FFE70298012851D1FFE742F20001C4F291
:1003D0000201086840F010000860086820F007007B
:1003E0000860086840F00200086041F20401C4F2AD
:1003F000020100910868086008680860086840F415
:1004000080600860086820F47C100860086840F488
:10041000E810086041F20001C4F20201086840F0EF
:1004200080700860FFE741F20000C4F2020000683B
:100430008001002801D4FFE7F5E741F20401C4F28E
:100440000201086820F003000860086840F002001C
:100450000860FFE741F20400C4F20200006800F007
:100460000C00082801D0FFE7F4E700E0FFE704B044
:100470007047000080B541F20002C4F20202106829
:1004800040F00100106041F20401C4F2020108686A
:100490000023CFF6FF031840086010684FF6FF7383
:1004A000CFF6F66318401060106820F480201060CA
:1004B000086820F4FE00086041F20801C4F202015D
:1004C0004FF41F000860FFF73FFF4EF60851CEF2D1
:1004D00000014FF00060086080BD000082B0ADF800
:1004E00006000091BDF80600012813D1FFE7FFE7E1
:1004F00043F60000C4F20100008800F040008028AC
:1005000001D1FFE7F4E7009843F60401C4F20101CA
:10051000088018E0BDF80600022813D1FFE7FFE7C6
:1005200044F20040C4F20000008800F0400080283F
:1005300001D1FFE7F4E7009844F20441C4F200015E
:100540000880FFE7FFE7BDF80600032813D1FFE7A7
:10055000FFE744F60000C4F20000008800F040000D
:10056000802801D1FFE7F4E7009844F60401C4F2C3
:1005700000010880FFE702B07047000080B58AB034
:10058000ADF826000891BDF82600089900F0A4F8FF
:10059000079041F21801C4F20201086840F001001E
:1005A0000860BDF8260001282DD1FFE741F21801AF
:1005B000C4F20201086840F4804008600120059000
:1005C000092103220223069300F0D4F90598069B23
:1005D0000A21002200F0CEF9079843F60801C4F280
:1005E0000101088043F60C01C4F20101088840F0C3
:1005F00008000880088840F004000880088840F45B
:100600000050088065E0BDF8260002282ED1FFE7E3
:1006100041F21C01C4F20201086840F40030086095
:10062000012002900322039202230493194600F052
:10063000A1F902980399049B002200F09BF9079806
:1006400044F20841C4F20001088044F20C41C4F2B3
:100650000001088840F008000880088840F0040085
:100660000880088840F40050088031E0BDF826007A
:1006700003282CD1FFE741F21C01C4F202010868F3
:1006800040F4802008600A210322022301931846C7
:1006900000F070F9019B01200B21002200F06AF9A3
:1006A000079844F60801C4F20001088044F60C01E2
:1006B000C4F20001088840F008000880088840F073
:1006C00004000880088840F400500880FFE7FFE736
:1006D000FFE70AB080BD000080B592B0ADF84600DB
:1006E000109145F20010C0F225200F9042F68820AC
:1006F000C4F281100B9000200A900021C3F6F07123
:1007000009910890BDF8460001280DD1FFE74AF293
:100710000020C0F24A400F9042F68820C4F29110A7
:100720000B9000200A90FFE70F9810990901B0FB89
:10073000F1F00F900A9801900B9802901098000128
:1007400000F04FFF024601980B46029900F084FD2D
:10075000039004910F9800F044FF024603980B4663
:10076000049901F0C7F8002207920023C4F2300375
:1007700000F0C2FF0B910A900A980B9900F004FF59
:100780000E900A9805900B9806900E9800F029FF9D
:10079000024605980B46069901F0ACF8079A00232B
:1007A000C4F2590300F0A8FF079A0991089008982D
:1007B00009990023C4F2490301F0A6F970B9FFE7D3
:1007C0000E9801300E900E98102806D1FFE70020F9
:1007D0000E900F9801300F90FFE7FFE70F98000190
:1007E0000D900E990D9808440D900D9812B080BD93
:1007F00084B0ADF80E00ADF80C10ADF80A2003205F
:100800000090BDF80E00012809D1FFE7009940F6DD
:100810000000C4F2010000EB810001901DE0BDF872
:100820000E00022809D1FFE7009940F60040C4F20B
:10083000010000EB810001900EE0BDF80E000328DE
:1008400009D1FFE7009941F20000C4F2010000EB7A
:1008500081000190FFE7FFE7FFE7BDF80A0058B10C
:10086000FFE7BDF80A00BDF80C1000FA01F201998B
:1008700008681043086009E0BDF80C10012000FA78
:1008800001F20199086890430860FFE704B07047DF
:1008900080B588B0ADF81E00ADF81C1000200490A3
:1008A0008DF81B00FF208DF81A00BDF81C000121F7
:1008B00001FA00F0C0438DF819009DF81A009DF868
:1008C000192010408DF81A009DF81B00BDF81E205D
:1008D000914008438DF81B009DF81B1002200390E7
:1008E000FFF7FCFD03989DF81A10FFF7F7FD049839
:1008F0000590FFE70598B0F52F6F05DAFFE7FFE7F2
:10090000059801300590F5E701200190082102913A
:1009100000F0CEFB0198029900F0CAFB08B080BD40
:1009200080B584B08DF80F0000200290FFE7029898
:1009300009281DDCFFE79DF80F100120FFF7A8FF35
:100940009DF80F1000200190FFF7A2FF01989DF87D
:100950000F100131FFF79CFF01989DF80F1001392E
:1009600089B2FFF795FFFFE7029801300290DEE7BA
:1009700004B080BD84B0ADF80E00ADF80C10ADF839
:100980000A20ADF80830BDF80C00ADF802000020D8
:10099000ADF80000BDF80C00082809DBFFE7BDF842
:1009A00002000838ADF802000120ADF80000FFE7B2
:1009B000BDF80E00012812D1FFE741F21801C4F280
:1009C0000201086840F004000860BDF8001040F61D
:1009D0000000C4F2010000EB810001902FE0BDF89F
:1009E0000E00022812D1FFE741F21801C4F2020101
:1009F000086840F008000860BDF8001040F60040AC
:100A0000C4F2010000EB8100019017E0BDF80E0078
:100A1000032812D1FFE741F21801C4F2020108686D
:100A200040F010000860BDF8001041F20000C4F270
:100A3000010000EB81000190FFE7FFE7FFE7BDF851
:100A4000020081000F2000FA01F20199086890432A
:100A50000860BDF80A00BDF802108A009040BDF899
:100A600008100232914040EA0102019908681043DF
:100A7000086004B07047000080B596B00020049074
:100A8000159000F0FDFA0220059040F60011C0F22A
:100A90003D01FFF773FD082103220123039318464C
:100AA000FFF768FF0398049A059B44F2104CC4F2C8
:100AB000000C4FF43061ACF800100B21FFF75AFF27
:100AC0000398049A059B0C21FFF754FF0398049A9E
:100AD000059B0F21FFF74EFFFFE703201490002036
:100AE0000290ADF84C00ADF84A00ADF84800119006
:100AF000ADF84200ADF84000ADF83E00ADF83C0066
:100B0000ADF83A00ADF83800ADF83600ADF8340075
:100B1000ADF83200ADF83000ADF82E00ADF82C0085
:100B2000ADF82A00ADF82800ADF82600ADF8240095
:100B300040F28000C2F200000A21019100F016FA92
:100B4000019940F20000C2F20000009000F00EFA9D
:100B5000019940F24000C2F2000000F007FA01994A
:100B600040F22000C2F2000000F000FA0098019963
:100B700000F0FCF9019940F26000C2F2000000F0C0
:100B8000F5F902980890FFE70898B0F5617F80F2C8
:100B9000EC81FFE701200B21FFF796FB012804D130
:100BA000FFE7149801301490FFE701200C21FFF7B4
:100BB0008BFB012804D1FFE7149801381490FFE75C
:100BC00001200F21FFF780FB012824D1FFE700203F
:100BD0000790FFE7079803281CDCFFE7BDF85010DB
:100BE0000320FFF755FEBDF850100420FFF750FE1C
:100BF000BDF850100620FFF74BFEBDF8501007203F
:100C0000FFF746FE1498ADF84E00FFE70798013055
:100C10000790DFE7FFE7BDF94E0003280AD1FFE7A1
:100C20000020ADF82C00ADF84C00ADF84A00ADF84E
:100C30004800FFE7BDF94E0048B9FFE70020ADF8D6
:100C40002A001190ADF84200ADF84000FFE7BDF971
:100C50004E0007280AD1FFE70020ADF82800ADF8C4
:100C60003E00ADF83C00ADF83A00FFE7BDF94E009C
:100C700002280AD1FFE70020ADF82600ADF83800C1
:100C8000ADF83600ADF83400FFE7BDF94E00052899
:100C90000AD1FFE70020ADF82400ADF83200ADF82E
:100CA0003000ADF82E00FFE700200690FFE7069821
:100CB000042800F3EF80FFE7BDF92C0014990A31F6
:100CC000884228DBFFE7BDF94E00032823D0FFE769
:100CD00007200321FFF7DCFDBDF94C00332805DBBD
:100CE000FFE706200321FFF7D3FDFFE7BDF94A0028
:100CF000652805DBFFE705200321FFF7C9FDFFE7B6
:100D0000BDF94800972805DBFFE704200321FFF722
:100D1000BFFDFFE7FFE7BDF92A001499283188429B
:100D200026DBFFE7BDF94E0010B3FFE707200021E7
:100D3000FFF7AEFD1198332805DBFFE70620002101
:100D4000FFF7A6FDFFE7BDF94200652805DBFFE7D9
:100D500005200021FFF79CFDFFE7BDF94000972823
:100D600005DBFFE704200021FFF792FDFFE7FFE727
:100D7000BDF9280014991431884228DBFFE7BDF93A
:100D80004E00072823D0FFE707210846FFF780FD24
:100D9000BDF93E00332805DBFFE706200721FFF7FA
:100DA00077FDFFE7BDF93C00652805DBFFE705207F
:100DB0000721FFF76DFDFFE7BDF93A00972805DB36
:100DC000FFE704200721FFF763FDFFE7FFE7BDF919
:100DD000260014991E31884228DBFFE7BDF94E003A
:100DE000022823D0FFE707200221FFF751FDBDF9BC
:100DF0003800332805DBFFE706200221FFF748FD16
:100E0000FFE7BDF93600652805DBFFE70520022175
:100E1000FFF73EFDFFE7BDF93400972805DBFFE74C
:100E200004200221FFF734FDFFE7FFE7BDF92400AE
:100E300014990F31884228DBFFE7BDF94E000228E4
:100E400023D0FFE707200521FFF722FDBDF932007F
:100E5000332805DBFFE706200221FFF719FDFFE736
:100E6000BDF93000652805DBFFE705200221FFF70B
:100E70000FFDFFE7BDF92E00972805DBFFE70420F3
:100E80000521FFF705FDFFE7FFE7FFE706980130C3
:100E900006900CE79DF85000FFF742FDBDF82C00CE
:100EA0000130ADF82C00BDF82A000130ADF82A0061
:100EB000BDF828000130ADF82800BDF8260001304B
:100EC000ADF82600BDF824000130ADF82400BDF8CF
:100ED0004C000130ADF84C00BDF84A000130ADF8CF
:100EE0004A00BDF848000130ADF8480011980130C3
:100EF0001190BDF842000130ADF84200BDF840004D
:100F00000130ADF84000BDF83E000130ADF83E00C4
:100F1000BDF83C000130ADF83C00BDF83A000130AE
:100F2000ADF83A00BDF838000130ADF83800BDF832
:100F300036000130ADF83600BDF834000130ADF8B0
:100F40003400BDF832000130ADF83200BDF8300099
:100F50000130ADF83000BDF82E000130ADF82E00A4
:100F6000FFE70898013008900EE6B6E580B58CB032
:100F70000B90ADF82A1000200990FFE70998062889
:100F80005DDCFFE700200890FFE70898BDF92A1014
:100F900088423CDAFFE74FF4FF700790002006908C
:100FA000FFE7069808282DDCFFE70B98069950F814
:100FB000211002200090FFF791FA00980799FFF79F
:100FC0008DFA01200190FFF76FF901980821029135
:100FD00000F06EF80198029900F06AF80798C04393
:100FE00007909DF81C00079007984000079007980D
:100FF000C04307909DF81C000790FFE7069801305A
:101000000690CEE7FFE7089801300890BDE7002082
:101010000590FFE7059808280CDCFFE70B99059A77
:1010200051F82200400041F82200FFE70598013006
:101030000590EFE7FFE70998013009909EE700204F
:101040000490FFE70498062818DCFFE700200390CF
:10105000FFE7039808280CDCFFE70B99039A51F887
:101060002200401041F82200FFE70398013003906E
:10107000EFE7FFE7049801300490E3E70CB080BD90
:101080004EF21001CEF20001002008604EF214036F
:10109000CEF200036FF07F421A604EF21802CEF2D9
:1010A00000021060086840F005000860704700000A
:1010B00080B582B0ADF80600ADF80410BDF80600AA
:1010C000BDF80410FFF700F940B1FFE7BDF80600D6
:1010D000BDF804100022FFF78BFB07E0BDF8060007
:1010E000BDF804100122FFF783FBFFE702B080BDCB
:1010F00010B591EA030F48BF83F0004300F102846A
:10110000841A71EB030C05D2121943EB0C03001B7C
:1011100061EB0C014FEA1154A4EB135CDFF81CE106
:101120001EEA430F18BF9EEA445F00F0748021EA74
:10113000045123EA0E0343F48013DCF1200E32D372
:1011400022FA0CFE10EB0E0023FA0CFE41EB0E010E
:10115000CCF1200E03FA0EFE10EB0E00CCF1200EA7
:1011600051F10001B1F5801F32D201EB045112FAA6
:101170000EF2BDE8104058BF7047401C38BF5FEA10
:10118000420218BF7047002814BF20F0010041F14F
:1011900000014FEA410313F5001F38BF7047A1F16A
:1011A000C04100F0A1BB012A43EB0302ACF1200CCB
:1011B000DCF11F0E32BF4FF0000E23FA0CF310EBE0
:1011C000030041EB0451B4EB115FD0D0A1EB04510B
:1011D00001F58011490801EB04515FEA30000ED39C
:1011E00050F1000038BF12FA0EFE08D1BDE81040E1
:1011F000C9E7401C38BF5FEA4202CAD1C3E7BDE875
:1012000010404FEA410313F5001F38BF7047A1F1AA
:10121000C04100F069BB9EEA445F08D011EA5E0F4E
:10122000BDE8104004BF01F0004100207047BDE858
:10123000104070B500F00AFB64FBBE3E0000E0FF0A
:10124000491058BFC1F140415B1058BFC3F1404342
:101250008B42EFF3008070472DE9C04130B4DFF8D6
:10126000A8C23CEA111418BF3CEA131400F0F08045
:101270001CEA111481EA030544EAD57418BF1CEA7C
:10128000131500F0CB80A4EB050404F17F7404F582
:1012900000344FF0004545EAC12145EAC32341EA45
:1012A000505143EA52534FEAC0204FEAC2229942BA
:1012B00008BF904200F0A0804FEA13650FF2481675
:1012C000765D4FEA134506FB05F7C7F1807706FB0D
:1012D00007F74FEAD737A7FB03687642A7FB06CE8E
:1012E000C8F5803838BFA8F1010807FB08E6A6FB5F
:1012F000028C4FF0000EE6FB03CED8F100086FEA37
:101300000C0C5CF1000C6FEA0E0E4EF1004EA6FBC9
:101310000C584FF00007E6FB0E87A1FB08C6A0FBA8
:1013200007CE16EB0E064FF0000545F10005E1FB78
:10133000076515F1E04E7EBFA4F580345FEA4606EE
:101340006D4116F1800745F100054FEA172747EA7E
:1013500005674FEA15254FEA0666A6F1DE46B6F1A7
:10136000805F20D9384605EBC47124F0010C01EBF5
:101370000C11BCF1FE6F02D8F0BCBDE80081244224
:101380005CBF01F5801E9EEAC47F02D4F0BCBDE8BC
:101390000081244200F13980A1F1C041F0BCBDE8D8
:1013A000004100F0A1BA4FEAD02040EA41504FEA94
:1013B000D1214FEAD22242EA43524FEAD323A7FB7C
:1013C000028607FB036605FB02661EEA0E0F58BF86
:1013D000A6EB0056B6EB00564FEA520E4EEAC37E1D
:1013E00018EB0E0E56EB530EBCD518EB02085E41FF
:1013F0007F1C55F10005B5E74FF480154FF000074D
:101400004FF000064FF00008ACE701F1C04101F0D9
:1014100000414FF00000F0BCBDE800810CEA13155C
:1014200011EA0C1F00D00CE013EA0C1F00F025801D
:101430004FF0000081EA030101F00041F0BCBDE87B
:101440000081F0BCBDE8004181EA030100F04CBA24
:10145000F0BCBDE8004170B500F0F8F9097EFC3E33
:1014600000F007B84FF0000081EA030101F00041ED
:10147000704781EA030100F037BAF0BCBDE80041D3
:1014800022494FF000007047FFFDFBF9F7F5F4F239
:10149000F0EEEDEBE9E8E6E4E3E1E0DEDDDBDAD80F
:1014A000D7D5D4D3D1D0CFCDCCCBCAC8C7C6C5C46D
:1014B000C2C1C0BFBEBDBCBBBAB9B8B7B6B5B4B384
:1014C000B2B1B0AFAEADACABAAA9A8A8A7A6A5A46F
:1014D000A3A3A2A1A09F9F9E9D9C9C9B9A99999833
:1014E0009797969595949393929191908F8F8E8ED6
:1014F0008D8C8C8B8B8A8989888887878685858463
:1015000084838382828181800000FF070000F87F4E
:1015100051EA030C17D41CF5801F58BFBCF5801F7F
:1015200000F10680994218BF704708BF904270478B
:1015300007D711F5801F58BF13F5801F19D49942A2
:101540007047894270471CF5801F08D5BCF5801F85
:10155000F7D58B4218BF704708BF824270474FF4DF
:10156000001C1CEB410F38BF1CEB430F01D28B4218
:10157000704770B500F06AF9922449004FF00051AD
:101580004FF08053FFF75CBE4FEA1153A3F5806321
:10159000D3F11E03A8BFD3F1200C08DB4FF00042AB
:1015A00042EAC12252EA505232FA03F0704709422D
:1015B0000BD4102BC4BF0020704703F5787CBCF11E
:1015C000FF3F05D04FF0FF3070474FF000007047ED
:1015D00070B500F03BF900BF4992248000207047AD
:1015E000F0E7B0FA80F310FA03F10AD0C3F11D035B
:1015F00003F580634FEA03524FEA415002EBD121D9
:1016000070474FF00000704751EA030C17D41CF5E7
:10161000801F58BFBCF5801F00F10680994218BF9B
:10162000704708BF9042704707D711F5801F58BF19
:1016300013F5801F19D499427047894270471CF5F1
:10164000801F08D5BCF5801FF7D58B4218BF7047A7
:1016500008BF824270474FF4001C1CEB410F38BF9B
:101660001CEB430F01D28B42704770B500F0EEF8CF
:10167000922449004FF080514FF00053FFF7E0BD36
:1016800051EA030C17D41CF5801F58BFBCF5801F0E
:1016900000F10680994218BF704708BF904270471A
:1016A00007D711F5801F58BF13F5801F19D4994231
:1016B0007047894270471CF5801F08D5BCF5801F14
:1016C000F7D58B4218BF704708BF824270474FF46E
:1016D000001C1CEB410F38BF1CEB430F01D28B42A7
:1016E000704770B500F0B2F8922449004FF00051F5
:1016F0004FF08053FFF7A4BD70B5DFF848C11CEA76
:10170000111E1EBF1CEA13159EEA0C0F95EA0C0F62
:1017100000F06F8081EA03044EEAD47EAE4421EAF1
:101720004C1123EA4C1341F4801143F48013AEF1C1
:101730007F7EA1FB024CA0FB0365361955EB0C051F
:10174000A1FB034C4CF10003A0FB021C16EB0C06A2
:10175000654153F10003094218BF46F0010613F436
:10176000007F0BD14FEA03314FEA053041EA1551B2
:1017700040EA165034036FF003020AE04FEAC32137
:101780004FEAC52041EA555140EA5650F4026FF045
:10179000020202EB2E4201EB025585EACE710AD01D
:1017A0005FEA440C18BF24F0004450F1000041F1FE
:1017B000000120EAD47040F2FE7C624500D270BD88
:1017C000A84214BF4FF080444FF04044002E08BFA1
:1017D0000024BEF1806FA8BFA1F1C041BDE87040F8
:1017E00080F2828001F1C04101F000414FF0000021
:1017F00070470CEA13159EEA0C0F18BF95EA0C0F00
:1018000006D081EA030E4FF000000EF0004170BDDB
:1018100000F01CF88900013E00F007B800F009B89C
:101820004FEA430C5FEA5C5C08D081EA030100F0F8
:101830005BB84FEA410C5FEA5C5CF6D102494FF0BD
:10184000000070470000FF070000F87F0EF1020E55
:101850002EF0030E5EF8046B364205D4012A43EBEA
:10186000030515F5001F12D8012841EB010C1CF5EA
:10187000001F0CD80ED14FEAD17C0CEB4C0C0CF1B4
:10188000020C15F5001F08BF4CEBD37C04E04FF0B1
:10189000080C01E04FEAD37C0CEB4C0526FA05F668
:1018A00006F00706B6F1040C06D20EEB860CBDE876
:1018B00070404CF0010C6047DFE80CF0090B0202AD
:1018C0004FF00041A1F500214FF0000070BD194616
:1018D0001046012851EB010418BFD4F5001484BF51
:1018E000002001F0004170BD0808A0F500114FEA8A
:1018F0003101704710B591EA030F48BF83F00043F0
:101900003FF5FEAB841A71EB030C07D28CF0004C50
:10191000121943EB0C03001B61EB0C014FEA11544D
:10192000A4EB135CDFF8A4E11EEA430F18BF9EEAA4
:10193000445F00F0B48021EA045123EA6E0352426E
:10194000C3EB6E0338BF5B1EDCF1200E25D322FAF9
:101950000CFE10EB0E0043FA0CFE41EB0E01CCF135
:10196000200E03FA0EFE10EB0E00CCF1200E51F10A
:10197000000129D401EB045112FA0EF2BDE8104027
:1019800058BF7047401C1CBFB2F1004F7047002881
:101990000CBF491C20F00100704712EB020E43EB14
:1019A000030218BF4FF0010E4EEA4202ACF1200CC8
:1019B000DCF11E0E56D943FA0CFE10EB0E00CCF1F2
:1019C0001E0E51F1FF31D5D50EF1010E12FA0EFEA9
:1019D000404141EB010101EB445C5FEA5C5C10D9E2
:1019E00001EB045110EBDE7038BFBEF1004FBDE8D3
:1019F000104018BF704700280CBF491C20F00100A0
:101A0000704734D24FEAD42C24F4006411F500114D
:101A10001BD0B1FA81F20B3AA41AA41ED2F1200312
:101A2000914030FA03F31943904001EBCC7101EB84
:101A30000451002CBDE81040A8BF704701F1C0411F
:101A400001F000414FF000007047B0FA80F310FA47
:101A500003F102D1BDE810407047E41A173C480575
:101A6000C90AE2E701EB0451BDE810407047491094
:101A70004FEA300001EB0451BDE8104002E04FF0A6
:101A8000000170474A0008BF0042F8D0B2F5001FBD
:101A900028BF704701F000414FF0000070479EEAF8
:101AA000445F07D011EA5E0FBDE8104004BF00217B
:101AB00000207047BDE8104070B5FFF7C7FE00BFBB
:101AC00040DFF63E104683F0004170470000E0FF23
:101AD00010B5FFF71DFD0CBF0120002010BD10B593
:101AE000FFF716FD14BF0120002010BD10B5FFF751
:101AF0008BFD8CBF0120002010BD10B5FFF784FDC9
:101B00002CBF0120002010BD10B5FFF7B9FD94BF18
:101B10000120002010BD10B5FFF7B2FD34BF012039
:101B2000002010BD441B000800000020A0000000A1
:101B300050010008E41B0008A0000020600600001F
:101B400070010008100000002800000044000000A0
:101B50007C0000004400000044000000440000003D
:101B60004400000010000000100000001E000000F3
:101B70001100000011000000190000001600000014
:101B800000000000220000002200000022000000EF
:101B90003E000000220000002200000022000000A1
:101BA000220000000000000042000000460000008B
:101BB0004A000000520000006200000042000000E5
:101BC00000000000000000009200000092000000F1
:101BD0009200000092000000540000003800000055
:041BE0000000000001
:04000005080001B539
:00000001FF
